:100000000C94DA000C9402010C9402010C9402018D
:100010000C9402010C9402010C9402010C94020154
:100020000C9402010C9402010C9402010C94020144
:100030000C9402010C9402010C9402010C94020134
:100040000C948B050C9402010C9459050C94330507
:100050000C9402010C9402010C9402010C94020114
:100060000C9402010C94020100407A10F35A00A093
:10007000724E18090010A5D4E80000E87648170071
:1000800000E40B54020000CA9A3B000000E1F505B1
:10009000000080969800000040420F000000A086FB
:1000A00001000000102700000000E803000000002D
:1000B0006400000000000A000000000001000000D1
:1000C00000002C76D888DC674F0823DFC1DFAE59EB
:1000D000E1B1B796E5E3E453C63AE651997696E87E
:1000E000E6C28426EB898C9B62ED407C6FFCEFBC02
:1000F0009C9F40F2BAA56FA5F490055A2AF75C932D
:100100006B6CF9676DC11BFCE0E40D47FEF520E662
:10011000B500D0ED902E0300943577050080841E45
:10012000080000204E0A000000C80C333333330FA0
:10013000986E12831141EF8D2114893BE65516CF3D
:10014000FEE6DB18D1844B381BF77C1D901DA4BB49
:10015000E424203284725E228100C9F124ECA1E5FE
:100160003D27000000080002010000030407000012
:1001700000000000000000000000250028002B0007
:1001800000000000240027002A00040404040404E2
:100190000404020202020202030303030303010236
:1001A0000408102040800102040810200102040805
:1001B0001020D50511241FBECFEFD8E0DEBFCDBF84
:1001C00022E0A0E5B1E001C01D92A831B207E1F73D
:1001D00011E0A0E0B1E0EAEEFCE102C005900D9272
:1001E000A035B107D9F710E0CAEDD0E004C02197DF
:1001F000FE010E947B0CC93DD107C9F70E941F0672
:100200000C94730E0C94000090E0FC01E256FE4F3B
:10021000249186579E4FFC018491882399F090E0A9
:10022000880F991FFC01E058FE4FA591B491FC0185
:10023000EA58FE4F859194918FB7F894EC91E22B98
:10024000EC938FBF0895AF92BF92CF92DF92EF925F
:10025000FF920F931F93CF93DF936C017B018B0170
:10026000040F151FEB015E01AE18BF08C017D107C0
:1002700059F06991D601ED91FC910190F081E02D4A
:10028000C6010995892B79F7C501DF91CF911F919F
:100290000F91FF90EF90DF90CF90BF90AF900895B7
:1002A000FC01538D448D252F30E0842F90E0821B7C
:1002B000930B541710F0CF96089501970895FC0101
:1002C000918D828D981761F0A28DAE0FBF2FB11D59
:1002D0005D968C91928D9F5F9F73928F90E00895B1
:1002E0008FEF9FEF0895FC01918D828D981731F06B
:1002F000828DE80FF11D858D90E008958FEF9FEFBF
:100300000895FC01918D228D892F90E0805C9F4F94
:10031000821B91098F73992708958FE591E00E94C0
:10032000810121E0892B09F420E0822F089580E0EB
:1003300090E0892B29F00E948D0181110C9400001E
:100340000895FC01A48DA80FB92FB11DA35ABF4F6A
:100350002C91848D90E001968F739927848FA689C4
:10036000B7892C93A089B1898C91837080648C9318
:10037000938D848D981306C00288F389E02D8081C7
:100380008F7D80830895EF92FF920F931F93CF93F9
:10039000DF93EC0181E0888F9B8D8C8D98131AC0C0
:1003A000E889F989808185FF15C09FB7F894EE89A7
:1003B000FF896083E889F989808183708064808304
:1003C0009FBF81E090E0DF91CF911F910F91FF904F
:1003D000EF900895F62E0B8D10E00F5F1F4F0F73F7
:1003E0001127E02E8C8D8E110CC00FB607FCFACFB2
:1003F000E889F989808185FFF5CFCE010E94A101AE
:10040000F1CFEB8DEC0FFD2FF11DE35AFF4FF08282
:100410009FB7F8940B8FEA89FB8980818062CFCFE8
:10042000CF93DF93EC01888D8823B9F0AA89BB892B
:10043000E889F9898C9185FD03C0808186FD0DC016
:100440000FB607FCF7CF8C9185FFF2CF808185FF37
:10045000EDCFCE010E94A101E9CFDF91CF910895A8
:1004600090E0FC01EE59FE4F2491FC01E256FE4F54
:100470003491FC01E657FE4FE491EE23C9F02223AC
:1004800039F0233001F1A8F4213019F1223029F19B
:10049000F0E0EE0FFF1FEA58FE4FA591B4918FB721
:1004A000F894EC91611126C030953E233C938FBFA8
:1004B00008952730A9F02830C9F0243049F78091F9
:1004C00080008F7D03C0809180008F7780938000B3
:1004D000DFCF84B58F7784BDDBCF84B58F7DFBCF35
:1004E0008091B0008F778093B000D2CF8091B00020
:1004F0008F7DF9CF3E2BDACF1F93CF93DF93182F49
:10050000EB010E940401209739F460E0812FDF9114
:10051000CF911F910C943002CF3FD10511F461E0CF
:10052000F5CFE12FF0E0EE59FE4FE491E33031F1E9
:1005300040F4E130B1F0E230E1F0C038D1057CF7B1
:10054000E4CFE73029F1E83059F1E430B1F7809198
:100550008000806280938000D0938B00C0938A00DB
:1005600004C084B5806884BDC7BDDF91CF911F9161
:10057000089584B5806284BDC8BDF7CF80918000A6
:10058000806880938000D0938900C0938800EDCF6D
:100590008091B00080688093B000C093B300E5CF35
:1005A0008091B00080628093B000C093B400DDCF32
:1005B0008E3008F08E508770806480937C0080912C
:1005C0007A00806480937A0080917A0086FDFCCF67
:1005D000809178009091790008953FB7F8948091C8
:1005E000550190915601A0915701B091580126B53F
:1005F000A89B05C02F3F19F00196A11DB11D3FBF5B
:10060000BA2FA92F982F8827BC01CD01620F711D29
:10061000811D911D42E0660F771F881F991F4A9523
:10062000D1F708958F929F92AF92BF92CF92DF92AF
:10063000EF92FF920E94ED024B015C0180EDC82E0B
:1006400087E0D82EE12CF12C0E94ED02681979097F
:100650008A099B09683E734081059105A8F321E052
:10066000C21AD108E108F10888EE880E83E0981ECE
:10067000A11CB11CC114D104E104F10429F7FF90BD
:10068000EF90DF90CF90BF90AF909F908F900895A4
:10069000089590E080E00895FC0101900020E9F7C2
:1006A0003197AF01481B590BBC018CEF91E00C94C2
:1006B0002301CF93DF93EC0188819981009711F09A
:1006C0000E941D0D198218821D821C821B821A82B3
:1006D000DF91CF910895FC0180819181009711F005
:1006E0000C941D0D0895CF93DF93EC0160E08E8193
:1006F0000E94300261E08E810E94300260E08E81B3
:100700000E9430028BE891E00197F1F7DF91CF91E1
:100710000895CF92DF92EF92FF920F931F93CF93A2
:10072000DF936C017C0187E0E80EF11CD0E0C0E0B3
:10073000062F10E0B8010C2E02C0759567950A943B
:10074000E2F76170F70181917F010E9430022196EA
:10075000C430D10579F7C601DF91CF911F910F9178
:10076000FF90EF90DF90CF900C947303CF92DF92C5
:10077000EF92FF920F931F93CF93DF93EC01F62E2E
:10078000642F8C810E9430028D818F3F19F060E0D0
:100790000E9430020F2D10E08F8584FF25C06E016E
:1007A00087E0C80ED11CF12CE12CB8010E2C02C040
:1007B000759567950A94E2F76170F60181916F0172
:1007C0000E943002FFEFEF1AFF0A88E0E816F104FA
:1007D00061F7CE01DF91CF911F910F91FF90EF90C4
:1007E000DF90CF900C947303B80184E07595679502
:1007F0008A95E1F7CE010E9489036F2DCE01DF912A
:10080000CF911F910F91FF90EF90DF90CF900C94BC
:10081000890340E0682F8CEF91E00C94B603CF93EE
:10082000DF93823029F490910B02986090930B0231
:1008300080930F021092100280E48093110280E1F5
:100840008093120280E580931302809100020E943F
:100850000401809101028F3F11F00E9404018091F8
:1008600002020E940401CCEFD1E09E012C5F3140D6
:1008700080910B0284FD0AC084E090E02196281745
:1008800039073CF48E810E940401EFCF88E090E0AC
:10089000F5CF8BE39DE00197F1F760E080910002D6
:1008A0000E94300260E0809102020E94300280913A
:1008B00001028F3F19F060E00E94300280910B022C
:1008C00084FD39C063E08CEF91E00E948903CBE4A2
:1008D000D6E4CE010197F1F763E08CEF91E00E943E
:1008E00089032197F1F763E08CEF91E00E9489037F
:1008F00083E592E00197F1F762E08CEF91E00E94CE
:10090000890380910B0280620E94090484E0809335
:100910000C028CE00E94090481E00E9409048BE330
:100920009FE10197F1F782E080930D0286E0DF916D
:10093000CF910C94090480620E9409048BE496E430
:100940000197F1F780910B0280620E94090483E510
:1009500092E00197F1F780910B0280620E940904F6
:10096000D0CF41E00E94B60381E090E008950F935C
:100970001F93CF93DF93EC0188819981009759F001
:100980002A813B812617370730F081E0DF91CF9134
:100990001F910F9108958B016F5F7F4F0E94A60DED
:1009A000009759F0998388831B830A832C813D81AA
:1009B000232B59F7FC011082E8CF80E0E7CFEF92BC
:1009C000FF920F931F93CF93DF93EC01FB01E08025
:1009D000F180E114F10411F1048115810115110573
:1009E000A9F08C819D81080F191FB801CE010E94CA
:1009F000B704882399F0288139818C819D81B701C2
:100A0000820F931F0E946C0E1D830C83CE01DF9119
:100A1000CF911F910F91FF90EF900895CE010E940A
:100A20005903F4CFEF92FF920F931F93CF93DF936D
:100A3000EC017B018A01BA010E94B70481110BC04D
:100A4000CE010E945903CE01DF91CF911F910F91EA
:100A5000FF90EF9008951D830C83B70188819981E1
:100A60000E946C0EF0CF1F920F920FB60F921124BE
:100A70002F933F934F935F936F937F938F939F93A6
:100A8000AF93BF93EF93FF938FE591E00E94A10195
:100A9000FF91EF91BF91AF919F918F917F916F9156
:100AA0005F914F913F912F910F900FBE0F901F902C
:100AB00018951F920F920FB60F9211242F938F93B8
:100AC0009F93EF93FF93E0916F01F091700180810C
:100AD000E0917501F091760182FD1BC090818091BB
:100AE00078018F5F8F7320917901821741F0E09137
:100AF0007801F0E0E15AFE4F958F80937801FF91E5
:100B0000EF919F918F912F910F900FBE0F901F909B
:100B100018958081F4CF1F920F920FB60F92112477
:100B20002F933F938F939F93AF93BF9380915101E6
:100B300090915201A0915301B09154013091500114
:100B400023E0230F2D3758F50196A11DB11D2093E9
:100B500050018093510190935201A0935301B0939F
:100B600054018091550190915601A0915701B09187
:100B700058010196A11DB11D809355019093560116
:100B8000A0935701B0935801BF91AF919F918F915E
:100B90003F912F910F900FBE0F901F90189526E850
:100BA000230F0296A11DB11DD2CFEFE5F1E0138214
:100BB000128288EE93E0A0E0B0E084839583A68360
:100BC000B7838AE091E09183808385EC90E09587FC
:100BD000848784EC90E09787868780EC90E0918B07
:100BE000808B81EC90E0938B828B82EC90E0958BF4
:100BF000848B86EC90E0978B868B118E128E138EF1
:100C0000148EECEFF1E0138212828CE191E091837B
:100C100080838CE084838FEF85838BE0868385E0FF
:100C2000878384E0808783E0818782E082871386E0
:100C3000148615861686178681E00C940F04CF93D0
:100C4000DF93CDB7DEB7E3970FB6F894DEBF0FBEE4
:100C5000CDBF789484B5826084BD84B5816084BD45
:100C600085B5826085BD85B5816085BD80916E004A
:100C7000816080936E00109281008091810082607B
:100C800080938100809181008160809381008091B8
:100C900080008160809380008091B10084608093A7
:100CA000B1008091B00081608093B00080917A00A3
:100CB000846080937A0080917A00826080937A00C9
:100CC00080917A00816080937A0080917A008068B8
:100CD00080937A001092C100E0916F01F091700151
:100CE00082E08083E0916B01F0916C011082E091D1
:100CF0006D01F0916E018FEC808310927701E0918D
:100D00007301F091740186E08083E0917101F091AC
:100D10007201808180618083E0917101F0917201A4
:100D2000808188608083E0917101F09172018081FF
:100D300080688083E0917101F091720180818F7DE4
:100D4000808382E00E940F048DE00E94040188E00D
:100D50000E94040189E00E9404018AE00E940401CB
:100D600086E00E94040187E00E94040180E0E82EF2
:100D700080E0F82E8EE00E94D80290935E0180936E
:100D80005D0183E10E94D802BC01990F880B990B89
:100D90000E94B00A20E030EC4FE754E40E94040CBB
:100DA00020E030E44CE955E40E940F0B20E030E0F5
:100DB00040E251E40E94040C4B015C018092590115
:100DC00090925A01A0925B01B0925C01E1E08091A7
:100DD0000F028111E0E0E195F0E0E450FE4F8489DC
:100DE00080680E9409041BA21AA21DA21CA21FA2B5
:100DF0001EA242E050E064E271E0CE0182960E94C1
:100E0000120519A618A61BA61AA61DA61CA68E01B9
:100E10000F5F1F4F22E044E0C501B4010E94540857
:100E2000009709F4D0C0FC0101900020E9F7319748
:100E3000AF01481B590BBC01CE0188960E941205D8
:100E40001FA61EA619AA18AA1BAA1AAA49E050E0B2
:100E500067E271E0CE018E960E9412051A82198215
:100E60001C821B821E821D826EA57FA561157105E5
:100E700031F04AA95BA9CE0101960E941205BE017C
:100E8000685D7F4FCE0101960E94DF04BE016E5D5A
:100E90007F4F0E94DF04FC01448155816081718194
:100EA0008CEF91E00E942301CE0101960E946B031A
:100EB000CE018E960E946B03CE0188960E946B0332
:100EC000CE0182960E946B03E0910F02E23008F09F
:100ED0007FC0E150F0E0E450FE4F84898F5F80686E
:100EE0000E94090480915D0190915E01893EF3E0CA
:100EF0009F0708F46FC08090590190905A01A0900C
:100F00005B01B0905C0120E030E040EF51E4C501AE
:100F1000B4010E94760C18160CF0B1C061E08DE0AF
:100F20000E94300261E087E00E94300260E086E0CB
:100F30000E94300281E391E00E944C036FEF70E069
:100F400088E00E947C0270E060E089E00E947C0200
:100F500070E060E08AE00E947C020E94120370E070
:100F600060E088E00E947C026FEF70E089E00E9400
:100F70007C0270E060E08AE00E947C020E94120322
:100F800070E060E088E00E947C0270E060E089E050
:100F90000E947C026FEF70E08AE00E947C020E9457
:100FA00012036FEF70E088E00E947C026FEF70E048
:100FB00089E00E947C026FEF70E08AE00E947C0270
:100FC0000E9412033BC0CE0188960E94590338CF7D
:100FD000E1E080CF883E934089F180905901909064
:100FE0005A01A0905B01B0905C0120E030E040EF3E
:100FF00051E4C501B4010E94760C18165CF561E05D
:101000008DE00E94300261E087E00E94300260E0E3
:1010100086E00E94300280E491E00E944C0370E080
:1010200060E088E00E947C0270E060E089E00E945D
:101030007C0270E060E08AE00E947C02E114F1042E
:1010400009F498CE0E948D01882309F493CE0E9462
:10105000000090CE20E030E040EF51E4C501B40143
:101060000E94A90A87FFEACF60E08DE00E9430026B
:1010700061E086E00E94300260E087E0CACF20E0B5
:1010800030E040EF51E4C501B4010E94A90A87FF96
:10109000D5CF60E08DE00E94300261E086E00E94E2
:1010A000300260E087E044CFEF920F931F93CF931D
:1010B000DF93E80134E047FD34E1042E000C550BCA
:1010C00057FF03C0519541955109E32E022F242F5C
:1010D000AE010E947208CE01DF91CF911F910F9156
:1010E000EF900895A9E0B0E0E8E7F8E00C94D30BA6
:1010F0006A01F22EB02E102FFBE3AF2EA01608F4DB
:101100001BE31F5F012F27E0AE014F5F5F4F0E947F
:10111000D109BC018981982F9970913009F43FC0A1
:101120009BE2E1FC04C09E2D9170E0FC3AC05E2D74
:101130005071E82FE87083FF46C084E0911101C030
:1011400083E0EF2DE81B8F1508F0E0E0D6018E2F2D
:1011500020E2552351F1992329F0D6019C93C60131
:1011600001966C0196012D5F3F4FE2FE24C08EE494
:10117000D6018C9391E411969C93119712968C93BF
:10118000D9018E2F90E281111BC0E20FF32FF11DC8
:1011900010828EEF9FEF2996ECE00C94EF0B9DE20E
:1011A000C6CF90E2C4CF2D9381508111FCCFCE0EDB
:1011B000D11CE0E0D0CF8EE6D6018C9391E6DBCF58
:1011C0009D938150E0CF482F447082FF3DC084E062
:1011D000911101C083E08F1510F4EF2DE81BD601AB
:1011E0008E2F20E2552309F1992329F0D6019C93F3
:1011F000C60101966C0196012D5F3F4FE2FE1BC0B8
:1012000089E4D6018C938EE411968C93119786E431
:1012100012968C93D9018E2F90E2882309F4B5CFD2
:101220009D938150FACF2D9381508111FCCFCE0E2A
:10123000D11CE0E0D9CF89E6D6018C938EE61196D9
:101240008C93119786E6E4CF9B0177FF02C030E0D4
:1012500020E0A1E0B0E0911102C0B0E0A0E0F9010F
:101260003196AE0FBF1F8B2C912CBB2009F461C0AF
:101270005401EFEFAE1ABE0AAA0DBB1DFA161B06EB
:1012800019F014F04F2D4A1B511188C0E3FC59C0CE
:101290007601A42FB0E2A1114FC0C40ED11C992336
:1012A00009F45BC040E0D6011196F60190836D0110
:1012B000552309F448C0012F060F9A81582F507109
:1012C00084FF03C0913309F4015010160CF047C09D
:1012D000093008F008E0EEE2FE2E5B01A01AB1082A
:1012E00085019194819491082F3F320729F4D6010A
:1012F000FC92F60131966F016217730794F10217A1
:1013000013077CF5DB01A21BB30BAA24A394B12C19
:10131000AC0EBD1EAA0DBB1D11968C91215031093A
:10132000D601119628153905F4F0F60180836D0178
:10133000DBCFB12CA12CA0CFF701B1937F01A1503D
:10134000AACF9111B0CFD601942F50E302C05D9384
:1013500091509111FCCFC40ED11C40E0ACCF01E004
:10136000BACF80E3DBCF6217730731F4963388F48A
:10137000953311F4552369F0F6018083FD01842F24
:1013800090E2811108C0A40FB11D1C9290E080E092
:1013900002CF81E3F1CF91938150F3CF911183CFAD
:1013A0008ACF283008F027E03327DA01990F311D62
:1013B00087FD916000966105710539F432602E5FFA
:1013C0003D9330E32A95E1F708959F3F30F0803850
:1013D0007105610509F03C5F3C5F3D93913008F079
:1013E0008068911DDF93CF931F930F93FF92EF922D
:1013F000192F987F9695E92F96959695E90FFF27D7
:10140000EE53FF4F99273327EE24FF24A701E7016E
:1014100005900894079428F4360FE71EF81E491F1C
:10142000511D660F771F881F991F0694A1F705901D
:10143000079428F4E70EF81E491F561FC11D770FA9
:10144000881F991F661F0694A1F70590079428F43A
:10145000F80E491F561FC71FD11D880F991F661F01
:10146000771F0694A1F70590079420F4490F561FA3
:10147000C71FD81F990F661F771F881F0694A9F7EB
:1014800084911095177041F0D695C795579547955B
:10149000F794E7941A95C1F7E8E6F0E068941590A0
:1014A000159135916591959105907FE27395E118BD
:1014B000F10A430B560BC90BD009C0F7E10CF11E22
:1014C000431F561FC91FD01D7EF4703311F48A9537
:1014D000E6CFE894015030F0080F0AF40027021715
:1014E00008F4202F2395022F7A3328F079E37D9397
:1014F0002A95E9F710C07D932A9589F60694979569
:101500006795379517951794E118F10A430B560B19
:10151000C90BD00998F023957E9173957A3308F022
:1015200070E37C932013B8F77E9170617D9330F067
:10153000839571E37D9370E32A95E1F71124EF9091
:10154000FF900F911F91CF91DF91992787FD909583
:1015500008950E94EB0A08F481E00895E89409C018
:1015600097FB3EF490958095709561957F4F8F4FD6
:101570009F4F9923A9F0F92F96E9BB279395F695EC
:10158000879577956795B795F111F8CFFAF4BB0F6A
:1015900011F460FF1BC06F5F7F4F8F4F9F4F16C0CE
:1015A000882311F096E911C0772321F09EE8872F58
:1015B000762F05C0662371F096E8862F70E060E014
:1015C0002AF09A95660F771F881FDAF7880F96958D
:1015D000879597F90895990F0008550FAA0BE0E831
:1015E000FEEF16161706E807F907C0F012161306E5
:1015F000E407F50798F0621B730B840B950B39F425
:101600000A2661F0232B242B252B21F408950A268A
:1016100009F4A140A6958FEF811D811D08950E94B8
:10162000220B0C94930B0E94850B38F00E948C0BBC
:1016300020F0952311F00C947C0B0C94820B112458
:101640000C94C70B0E94A40B70F3959FC1F3950FE8
:1016500050E0551F629FF001729FBB27F00DB11D36
:10166000639FAA27F00DB11DAA1F649F6627B00DC6
:10167000A11D661F829F2227B00DA11D621F739FAF
:10168000B00DA11D621F839FA00D611D221F749FBD
:101690003327A00D611D231F849F600D211D822F04
:1016A000762F6A2F11249F5750409AF0F1F088232B
:1016B0004AF0EE0FFF1FBB1F661F771F881F915058
:1016C0005040A9F79E3F510580F00C947C0B0C9480
:1016D000C70B5F3FE4F3983ED4F386957795679503
:1016E000B795F795E7959F5FC1F7FE2B880F911D82
:1016F0009695879597F9089597F99F6780E870E028
:1017000060E008959FEF80EC089500240A94161677
:10171000170618060906089500240A9412161306DF
:10172000140605060895092E0394000C11F488236D
:1017300052F0BB0F40F4BF2B11F460FF04C06F5F89
:101740007F4F8F4F9F4F089557FD9058440F551F5F
:1017500059F05F3F71F04795880F97FB991F61F033
:101760009F3F79F087950895121613061406551FAA
:10177000F2CF4695F1DF08C0161617061806991F16
:10178000F1CF86957105610508940895E894BB270B
:1017900066277727CB0197F908952F923F924F92B2
:1017A0005F926F927F928F929F92AF92BF92CF92F1
:1017B000DF92EF92FF920F931F93CF93DF93CDB7FA
:1017C000DEB7CA1BDB0B0FB6F894DEBF0FBECDBF72
:1017D00009942A88398848885F846E847D848C8443
:1017E0009B84AA84B984C884DF80EE80FD800C814C
:1017F0001B81AA81B981CE0FD11D0FB6F894DEBF2F
:101800000FBECDBFED0108950E94180C0C94930BF0
:101810000E948C0B58F00E94850B40F029F45F3F2A
:1018200029F00C947C0B51110C94C70B0C94820B77
:101830000E94A40B68F39923B1F3552391F3951BF0
:10184000550BBB27AA2762177307840738F09F5FE1
:101850005F4F220F331F441FAA1FA9F335D00E2E4E
:101860003AF0E0E832D091505040E695001CCAF7BB
:101870002BD0FE2F29D0660F771F881FBB1F26177E
:1018800037074807AB07B0E809F0BB0B802DBF0155
:10189000FF2793585F4F3AF09E3F510578F00C9424
:1018A0007C0B0C94C70B5F3FE4F3983ED4F3869512
:1018B00077956795B795F7959F5FC9F7880F911D45
:1018C0009695879597F90895E1E0660F771F881F31
:1018D000BB1F621773078407BA0720F0621B730BE4
:1018E000840BBA0BEE1F88F7E09508950E94EB0A6F
:1018F00008F48FEF0895EE0FFF1F0590F491E02D8F
:1019000009940F931F93CF93DF938230910510F4C6
:1019100082E090E0E0911602F091170230E020E0C2
:10192000B0E0A0E0309799F42115310509F44AC0E0
:10193000281B390B24303105D8F58A819B8161152C
:10194000710589F1FB0193838283FE0111C04081FF
:1019500051810281138148175907E0F04817590750
:1019600099F4109761F012960C93129713961C93AA
:101970003296CF01DF91CF911F910F91089500937F
:10198000160210931702F4CF2115310551F04217BA
:10199000530738F0A901DB019A01BD01DF01F8010D
:1019A000C1CFEF01F9CF9093170280931602CDCFEC
:1019B000FE01E20FF31F8193919322503109398385
:1019C0002883D7CF2091140230911502232B41F4A4
:1019D00020910201309103013093150220931402EB
:1019E00020910001309101012115310541F42DB7FD
:1019F0003EB74091040150910501241B350BE09145
:101A00001402F0911502E217F307A0F42E1B3F0B0E
:101A10002817390778F0AC014E5F5F4F2417350760
:101A200048F04E0F5F1F50931502409314028193AC
:101A300091939FCFF0E0E0E09CCFCF93DF930097AE
:101A4000E9F0FC01329713821282A0911602B09144
:101A50001702ED0130E020E01097A1F420813181E0
:101A6000820F931F20911402309115022817390715
:101A700009F061C0F0931502E0931402DF91CF9159
:101A80000895EA01CE17DF07E8F54A815B819E01E0
:101A900041155105B1F7E901FB83EA834991599159
:101AA000C40FD51FEC17FD0761F480819181029668
:101AB000840F951FE90199838883828193819B8399
:101AC0008A83F0E0E0E012968D919C911397009745
:101AD000B9F52D913C911197CD010296820F931F7C
:101AE00020911402309115022817390739F63097E2
:101AF00051F51092170210921602B0931502A0939E
:101B00001402BCCFD383C28340815181840F951FBF
:101B1000C817D90761F44E5F5F4F88819981480FDC
:101B2000591F518340838A819B819383828321152E
:101B3000310509F0B0CFF0931702E09316029ECF63
:101B4000FD01DC01C0CF13821282D7CFB0E0A0E04C
:101B5000ECEAFDE00C94CF0B8C01009751F4CB0123
:101B60000E94810C8C01C801CDB7DEB7E0E10C9476
:101B7000EB0BFC01E60FF71F9C0122503109E21725
:101B8000F30708F49DC0D901CD91DC911197C617D8
:101B9000D70798F0C530D10530F3CE0104978617EA
:101BA000970708F3C61BD70B2297C193D1936D9368
:101BB0007C93CF010E941D0DD6CF5B01AC1ABD0AEC
:101BC0004C018C0E9D1EA0911602B0911702512C53
:101BD000412CF12CE12C109731F580911402909159
:101BE00015028815990509F05CC04616570608F0DD
:101BF00058C08091000190910101009741F48DB788
:101C00009EB74091040150910501841B950BE81784
:101C1000F90708F055C0F0931502E0931402F9019A
:101C200071836083A0CF8D919C91119712966C90D7
:101C3000129713967C901397A815B90559F56C0166
:101C400042E0C40ED11CCA14DB0420F1AC014A19D5
:101C50005B09DA011296159780F0628273825183D4
:101C60004083D9016D937C93E114F10471F0D701A5
:101C70001396FC93EE93129776CF22968C0F9D1FAE
:101C8000F90191838083F301EFCFF0931702E09382
:101C9000160269CF4816590608F42C017D01D301BC
:101CA0009ACFCB010E94810C7C01009749F0AE01D4
:101CB000B8010E94630EC8010E941D0D870153CF19
:101CC00010E000E050CFFB01DC0102C001900D925A
:101CD00041505040D8F70895FB01DC0101900D926E
:0A1CE0000020E1F70895F894FFCF0B
:101CEA0000001802800000000000C3012301500117
:101CFA00100281015F01730100000000B104230199
:101D0A0049034803204300536963616B6C696B3A6A
:101D1A00004F7274616D204B6172616E6C696B0069
:101D2A004F7274616D20417964696E6C696B000051
:00000001FF
